{
  "contractName": "CertficateMaker",
  "abi": [
    {
      "inputs": [],
      "stateMutability": "nonpayable",
      "type": "constructor"
    },
    {
      "anonymous": false,
      "inputs": [
        {
          "indexed": true,
          "internalType": "address",
          "name": "owner",
          "type": "address"
        },
        {
          "indexed": true,
          "internalType": "address",
          "name": "approved",
          "type": "address"
        },
        {
          "indexed": true,
          "internalType": "uint256",
          "name": "tokenId",
          "type": "uint256"
        }
      ],
      "name": "Approval",
      "type": "event"
    },
    {
      "anonymous": false,
      "inputs": [
        {
          "indexed": true,
          "internalType": "address",
          "name": "owner",
          "type": "address"
        },
        {
          "indexed": true,
          "internalType": "address",
          "name": "operator",
          "type": "address"
        },
        {
          "indexed": false,
          "internalType": "bool",
          "name": "approved",
          "type": "bool"
        }
      ],
      "name": "ApprovalForAll",
      "type": "event"
    },
    {
      "anonymous": false,
      "inputs": [
        {
          "indexed": true,
          "internalType": "address",
          "name": "previousOwner",
          "type": "address"
        },
        {
          "indexed": true,
          "internalType": "address",
          "name": "newOwner",
          "type": "address"
        }
      ],
      "name": "OwnershipTransferred",
      "type": "event"
    },
    {
      "anonymous": false,
      "inputs": [
        {
          "indexed": true,
          "internalType": "address",
          "name": "from",
          "type": "address"
        },
        {
          "indexed": true,
          "internalType": "address",
          "name": "to",
          "type": "address"
        },
        {
          "indexed": true,
          "internalType": "uint256",
          "name": "tokenId",
          "type": "uint256"
        }
      ],
      "name": "Transfer",
      "type": "event"
    },
    {
      "inputs": [
        {
          "internalType": "address",
          "name": "to",
          "type": "address"
        },
        {
          "internalType": "uint256",
          "name": "tokenId",
          "type": "uint256"
        }
      ],
      "name": "approve",
      "outputs": [],
      "stateMutability": "nonpayable",
      "type": "function"
    },
    {
      "inputs": [
        {
          "internalType": "address",
          "name": "owner",
          "type": "address"
        }
      ],
      "name": "balanceOf",
      "outputs": [
        {
          "internalType": "uint256",
          "name": "",
          "type": "uint256"
        }
      ],
      "stateMutability": "view",
      "type": "function",
      "constant": true
    },
    {
      "inputs": [
        {
          "internalType": "uint256",
          "name": "tokenId",
          "type": "uint256"
        }
      ],
      "name": "getApproved",
      "outputs": [
        {
          "internalType": "address",
          "name": "",
          "type": "address"
        }
      ],
      "stateMutability": "view",
      "type": "function",
      "constant": true
    },
    {
      "inputs": [
        {
          "internalType": "address",
          "name": "owner",
          "type": "address"
        },
        {
          "internalType": "address",
          "name": "operator",
          "type": "address"
        }
      ],
      "name": "isApprovedForAll",
      "outputs": [
        {
          "internalType": "bool",
          "name": "",
          "type": "bool"
        }
      ],
      "stateMutability": "view",
      "type": "function",
      "constant": true
    },
    {
      "inputs": [],
      "name": "name",
      "outputs": [
        {
          "internalType": "string",
          "name": "",
          "type": "string"
        }
      ],
      "stateMutability": "view",
      "type": "function",
      "constant": true
    },
    {
      "inputs": [],
      "name": "owner",
      "outputs": [
        {
          "internalType": "address",
          "name": "",
          "type": "address"
        }
      ],
      "stateMutability": "view",
      "type": "function",
      "constant": true
    },
    {
      "inputs": [
        {
          "internalType": "uint256",
          "name": "tokenId",
          "type": "uint256"
        }
      ],
      "name": "ownerOf",
      "outputs": [
        {
          "internalType": "address",
          "name": "",
          "type": "address"
        }
      ],
      "stateMutability": "view",
      "type": "function",
      "constant": true
    },
    {
      "inputs": [],
      "name": "renounceOwnership",
      "outputs": [],
      "stateMutability": "nonpayable",
      "type": "function"
    },
    {
      "inputs": [
        {
          "internalType": "address",
          "name": "from",
          "type": "address"
        },
        {
          "internalType": "address",
          "name": "to",
          "type": "address"
        },
        {
          "internalType": "uint256",
          "name": "tokenId",
          "type": "uint256"
        }
      ],
      "name": "safeTransferFrom",
      "outputs": [],
      "stateMutability": "nonpayable",
      "type": "function"
    },
    {
      "inputs": [
        {
          "internalType": "address",
          "name": "from",
          "type": "address"
        },
        {
          "internalType": "address",
          "name": "to",
          "type": "address"
        },
        {
          "internalType": "uint256",
          "name": "tokenId",
          "type": "uint256"
        },
        {
          "internalType": "bytes",
          "name": "data",
          "type": "bytes"
        }
      ],
      "name": "safeTransferFrom",
      "outputs": [],
      "stateMutability": "nonpayable",
      "type": "function"
    },
    {
      "inputs": [
        {
          "internalType": "address",
          "name": "operator",
          "type": "address"
        },
        {
          "internalType": "bool",
          "name": "approved",
          "type": "bool"
        }
      ],
      "name": "setApprovalForAll",
      "outputs": [],
      "stateMutability": "nonpayable",
      "type": "function"
    },
    {
      "inputs": [
        {
          "internalType": "bytes4",
          "name": "interfaceId",
          "type": "bytes4"
        }
      ],
      "name": "supportsInterface",
      "outputs": [
        {
          "internalType": "bool",
          "name": "",
          "type": "bool"
        }
      ],
      "stateMutability": "view",
      "type": "function",
      "constant": true
    },
    {
      "inputs": [],
      "name": "symbol",
      "outputs": [
        {
          "internalType": "string",
          "name": "",
          "type": "string"
        }
      ],
      "stateMutability": "view",
      "type": "function",
      "constant": true
    },
    {
      "inputs": [
        {
          "internalType": "uint256",
          "name": "tokenId",
          "type": "uint256"
        }
      ],
      "name": "tokenURI",
      "outputs": [
        {
          "internalType": "string",
          "name": "",
          "type": "string"
        }
      ],
      "stateMutability": "view",
      "type": "function",
      "constant": true
    },
    {
      "inputs": [
        {
          "internalType": "address",
          "name": "from",
          "type": "address"
        },
        {
          "internalType": "address",
          "name": "to",
          "type": "address"
        },
        {
          "internalType": "uint256",
          "name": "tokenId",
          "type": "uint256"
        }
      ],
      "name": "transferFrom",
      "outputs": [],
      "stateMutability": "nonpayable",
      "type": "function"
    },
    {
      "inputs": [
        {
          "internalType": "address",
          "name": "newOwner",
          "type": "address"
        }
      ],
      "name": "transferOwnership",
      "outputs": [],
      "stateMutability": "nonpayable",
      "type": "function"
    },
    {
      "inputs": [
        {
          "internalType": "string",
          "name": "tokenURI",
          "type": "string"
        },
        {
          "internalType": "address",
          "name": "student",
          "type": "address"
        }
      ],
      "name": "mintNFT",
      "outputs": [
        {
          "internalType": "uint256",
          "name": "",
          "type": "uint256"
        }
      ],
      "stateMutability": "payable",
      "type": "function",
      "payable": true
    }
  ],
  "bytecode": "0x60806040523480156200001157600080fd5b506040518060400160405280600f81526020017f4d792043657274696669636174657300000000000000000000000000000000008152506040518060400160405280600381526020017f4e4654000000000000000000000000000000000000000000000000000000000081525081600090816200008f919062000412565b508060019081620000a1919062000412565b505050620000c4620000b8620000ca60201b60201c565b620000d260201b60201c565b620004f9565b600033905090565b6000600760009054906101000a900473ffffffffffffffffffffffffffffffffffffffff16905081600760006101000a81548173ffffffffffffffffffffffffffffffffffffffff021916908373ffffffffffffffffffffffffffffffffffffffff1602179055508173ffffffffffffffffffffffffffffffffffffffff168173ffffffffffffffffffffffffffffffffffffffff167f8be0079c531659141344cd1fd0a4f28419497f9722a3daafe3b4186f6b6457e060405160405180910390a35050565b600081519050919050565b7f4e487b7100000000000000000000000000000000000000000000000000000000600052604160045260246000fd5b7f4e487b7100000000000000000000000000000000000000000000000000000000600052602260045260246000fd5b600060028204905060018216806200021a57607f821691505b60208210810362000230576200022f620001d2565b5b50919050565b60008190508160005260206000209050919050565b60006020601f8301049050919050565b600082821b905092915050565b6000600883026200029a7fffffffffffffffffffffffffffffffffffffffffffffffffffffffffffffffff826200025b565b620002a686836200025b565b95508019841693508086168417925050509392505050565b6000819050919050565b6000819050919050565b6000620002f3620002ed620002e784620002be565b620002c8565b620002be565b9050919050565b6000819050919050565b6200030f83620002d2565b620003276200031e82620002fa565b84845462000268565b825550505050565b600090565b6200033e6200032f565b6200034b81848462000304565b505050565b5b8181101562000373576200036760008262000334565b60018101905062000351565b5050565b601f821115620003c2576200038c8162000236565b62000397846200024b565b81016020851015620003a7578190505b620003bf620003b6856200024b565b83018262000350565b50505b505050565b600082821c905092915050565b6000620003e760001984600802620003c7565b1980831691505092915050565b6000620004028383620003d4565b9150826002028217905092915050565b6200041d8262000198565b67ffffffffffffffff811115620004395762000438620001a3565b5b62000445825462000201565b6200045282828562000377565b600060209050601f8311600181146200048a576000841562000475578287015190505b620004818582620003f4565b865550620004f1565b601f1984166200049a8662000236565b60005b82811015620004c4578489015182556001820191506020850194506020810190506200049d565b86831015620004e45784890151620004e0601f891682620003d4565b8355505b6001600288020188555050505b505050505050565b612e7380620005096000396000f3fe6080604052600436106100fe5760003560e01c806370a0823111610095578063a22cb46511610064578063a22cb4651461033a578063b88d4fde14610363578063c87b56dd1461038c578063e985e9c5146103c9578063f2fde38b14610406576100fe565b806370a0823114610290578063715018a6146102cd5780638da5cb5b146102e457806395d89b411461030f576100fe565b8063095ea7b3116100d1578063095ea7b3146101d857806323b872dd1461020157806342842e0e1461022a5780636352211e14610253576100fe565b806301ffc9a71461010357806304f322791461014057806306fdde0314610170578063081812fc1461019b575b600080fd5b34801561010f57600080fd5b5061012a60048036038101906101259190611c64565b61042f565b6040516101379190611cac565b60405180910390f35b61015a60048036038101906101559190611e6b565b610511565b6040516101679190611ee0565b60405180910390f35b34801561017c57600080fd5b50610185610549565b6040516101929190611f7a565b60405180910390f35b3480156101a757600080fd5b506101c260048036038101906101bd9190611fc8565b6105db565b6040516101cf9190612004565b60405180910390f35b3480156101e457600080fd5b506101ff60048036038101906101fa919061201f565b610621565b005b34801561020d57600080fd5b506102286004803603810190610223919061205f565b610738565b005b34801561023657600080fd5b50610251600480360381019061024c919061205f565b610798565b005b34801561025f57600080fd5b5061027a60048036038101906102759190611fc8565b6107b8565b6040516102879190612004565b60405180910390f35b34801561029c57600080fd5b506102b760048036038101906102b291906120b2565b61083e565b6040516102c49190611ee0565b60405180910390f35b3480156102d957600080fd5b506102e26108f5565b005b3480156102f057600080fd5b506102f9610909565b6040516103069190612004565b60405180910390f35b34801561031b57600080fd5b50610324610933565b6040516103319190611f7a565b60405180910390f35b34801561034657600080fd5b50610361600480360381019061035c919061210b565b6109c5565b005b34801561036f57600080fd5b5061038a600480360381019061038591906121ec565b6109db565b005b34801561039857600080fd5b506103b360048036038101906103ae9190611fc8565b610a3d565b6040516103c09190611f7a565b60405180910390f35b3480156103d557600080fd5b506103f060048036038101906103eb919061226f565b610b4f565b6040516103fd9190611cac565b60405180910390f35b34801561041257600080fd5b5061042d600480360381019061042891906120b2565b610be3565b005b60007f80ac58cd000000000000000000000000000000000000000000000000000000007bffffffffffffffffffffffffffffffffffffffffffffffffffffffff1916827bffffffffffffffffffffffffffffffffffffffffffffffffffffffff191614806104fa57507f5b5e139f000000000000000000000000000000000000000000000000000000007bffffffffffffffffffffffffffffffffffffffffffffffffffffffff1916827bffffffffffffffffffffffffffffffffffffffffffffffffffffffff1916145b8061050a575061050982610c66565b5b9050919050565b600061051d6008610cd0565b60006105296008610ce6565b90506105358382610cf4565b61053f8185610f11565b8091505092915050565b606060008054610558906122de565b80601f0160208091040260200160405190810160405280929190818152602001828054610584906122de565b80156105d15780601f106105a6576101008083540402835291602001916105d1565b820191906000526020600020905b8154815290600101906020018083116105b457829003601f168201915b5050505050905090565b60006105e682610f7e565b6004600083815260200190815260200160002060009054906101000a900473ffffffffffffffffffffffffffffffffffffffff169050919050565b600061062c826107b8565b90508073ffffffffffffffffffffffffffffffffffffffff168373ffffffffffffffffffffffffffffffffffffffff160361069c576040517f08c379a000000000000000000000000000000000000000000000000000000000815260040161069390612381565b60405180910390fd5b8073ffffffffffffffffffffffffffffffffffffffff166106bb610fc9565b73ffffffffffffffffffffffffffffffffffffffff1614806106ea57506106e9816106e4610fc9565b610b4f565b5b610729576040517f08c379a000000000000000000000000000000000000000000000000000000000815260040161072090612413565b60405180910390fd5b6107338383610fd1565b505050565b610749610743610fc9565b8261108a565b610788576040517f08c379a000000000000000000000000000000000000000000000000000000000815260040161077f906124a5565b60405180910390fd5b61079383838361111f565b505050565b6107b3838383604051806020016040528060008152506109db565b505050565b6000806107c483611418565b9050600073ffffffffffffffffffffffffffffffffffffffff168173ffffffffffffffffffffffffffffffffffffffff1603610835576040517f08c379a000000000000000000000000000000000000000000000000000000000815260040161082c90612511565b60405180910390fd5b80915050919050565b60008073ffffffffffffffffffffffffffffffffffffffff168273ffffffffffffffffffffffffffffffffffffffff16036108ae576040517f08c379a00000000000000000000000000000000000000000000000000000000081526004016108a5906125a3565b60405180910390fd5b600360008373ffffffffffffffffffffffffffffffffffffffff1673ffffffffffffffffffffffffffffffffffffffff168152602001908152602001600020549050919050565b6108fd611455565b61090760006114d3565b565b6000600760009054906101000a900473ffffffffffffffffffffffffffffffffffffffff16905090565b606060018054610942906122de565b80601f016020809104026020016040519081016040528092919081815260200182805461096e906122de565b80156109bb5780601f10610990576101008083540402835291602001916109bb565b820191906000526020600020905b81548152906001019060200180831161099e57829003601f168201915b5050505050905090565b6109d76109d0610fc9565b8383611599565b5050565b6109ec6109e6610fc9565b8361108a565b610a2b576040517f08c379a0000000000000000000000000000000000000000000000000000000008152600401610a22906124a5565b60405180910390fd5b610a3784848484611705565b50505050565b6060610a4882610f7e565b6000600660008481526020019081526020016000208054610a68906122de565b80601f0160208091040260200160405190810160405280929190818152602001828054610a94906122de565b8015610ae15780601f10610ab657610100808354040283529160200191610ae1565b820191906000526020600020905b815481529060010190602001808311610ac457829003601f168201915b505050505090506000610af2611761565b90506000815103610b07578192505050610b4a565b600082511115610b3c578082604051602001610b249291906125ff565b60405160208183030381529060405292505050610b4a565b610b4584611778565b925050505b919050565b6000600560008473ffffffffffffffffffffffffffffffffffffffff1673ffffffffffffffffffffffffffffffffffffffff16815260200190815260200160002060008373ffffffffffffffffffffffffffffffffffffffff1673ffffffffffffffffffffffffffffffffffffffff16815260200190815260200160002060009054906101000a900460ff16905092915050565b610beb611455565b600073ffffffffffffffffffffffffffffffffffffffff168173ffffffffffffffffffffffffffffffffffffffff1603610c5a576040517f08c379a0000000000000000000000000000000000000000000000000000000008152600401610c5190612695565b60405180910390fd5b610c63816114d3565b50565b60007f01ffc9a7000000000000000000000000000000000000000000000000000000007bffffffffffffffffffffffffffffffffffffffffffffffffffffffff1916827bffffffffffffffffffffffffffffffffffffffffffffffffffffffff1916149050919050565b6001816000016000828254019250508190555050565b600081600001549050919050565b600073ffffffffffffffffffffffffffffffffffffffff168273ffffffffffffffffffffffffffffffffffffffff1603610d63576040517f08c379a0000000000000000000000000000000000000000000000000000000008152600401610d5a90612701565b60405180910390fd5b610d6c816117e0565b15610dac576040517f08c379a0000000000000000000000000000000000000000000000000000000008152600401610da39061276d565b60405180910390fd5b610dba600083836001611821565b610dc3816117e0565b15610e03576040517f08c379a0000000000000000000000000000000000000000000000000000000008152600401610dfa9061276d565b60405180910390fd5b6001600360008473ffffffffffffffffffffffffffffffffffffffff1673ffffffffffffffffffffffffffffffffffffffff16815260200190815260200160002060008282540192505081905550816002600083815260200190815260200160002060006101000a81548173ffffffffffffffffffffffffffffffffffffffff021916908373ffffffffffffffffffffffffffffffffffffffff160217905550808273ffffffffffffffffffffffffffffffffffffffff16600073ffffffffffffffffffffffffffffffffffffffff167fddf252ad1be2c89b69c2b068fc378daa952ba7f163c4a11628f55a4df523b3ef60405160405180910390a4610f0d600083836001611827565b5050565b610f1a826117e0565b610f59576040517f08c379a0000000000000000000000000000000000000000000000000000000008152600401610f50906127ff565b60405180910390fd5b80600660008481526020019081526020016000209081610f7991906129cb565b505050565b610f87816117e0565b610fc6576040517f08c379a0000000000000000000000000000000000000000000000000000000008152600401610fbd90612511565b60405180910390fd5b50565b600033905090565b816004600083815260200190815260200160002060006101000a81548173ffffffffffffffffffffffffffffffffffffffff021916908373ffffffffffffffffffffffffffffffffffffffff160217905550808273ffffffffffffffffffffffffffffffffffffffff16611044836107b8565b73ffffffffffffffffffffffffffffffffffffffff167f8c5be1e5ebec7d5bd14f71427d1e84f3dd0314c0f7b2291e5b200ac8c7c3b92560405160405180910390a45050565b600080611096836107b8565b90508073ffffffffffffffffffffffffffffffffffffffff168473ffffffffffffffffffffffffffffffffffffffff1614806110d857506110d78185610b4f565b5b8061111657508373ffffffffffffffffffffffffffffffffffffffff166110fe846105db565b73ffffffffffffffffffffffffffffffffffffffff16145b91505092915050565b8273ffffffffffffffffffffffffffffffffffffffff1661113f826107b8565b73ffffffffffffffffffffffffffffffffffffffff1614611195576040517f08c379a000000000000000000000000000000000000000000000000000000000815260040161118c90612b0f565b60405180910390fd5b600073ffffffffffffffffffffffffffffffffffffffff168273ffffffffffffffffffffffffffffffffffffffff1603611204576040517f08c379a00000000000000000000000000000000000000000000000000000000081526004016111fb90612ba1565b60405180910390fd5b6112118383836001611821565b8273ffffffffffffffffffffffffffffffffffffffff16611231826107b8565b73ffffffffffffffffffffffffffffffffffffffff1614611287576040517f08c379a000000000000000000000000000000000000000000000000000000000815260040161127e90612b0f565b60405180910390fd5b6004600082815260200190815260200160002060006101000a81549073ffffffffffffffffffffffffffffffffffffffff02191690556001600360008573ffffffffffffffffffffffffffffffffffffffff1673ffffffffffffffffffffffffffffffffffffffff168152602001908152602001600020600082825403925050819055506001600360008473ffffffffffffffffffffffffffffffffffffffff1673ffffffffffffffffffffffffffffffffffffffff16815260200190815260200160002060008282540192505081905550816002600083815260200190815260200160002060006101000a81548173ffffffffffffffffffffffffffffffffffffffff021916908373ffffffffffffffffffffffffffffffffffffffff160217905550808273ffffffffffffffffffffffffffffffffffffffff168473ffffffffffffffffffffffffffffffffffffffff167fddf252ad1be2c89b69c2b068fc378daa952ba7f163c4a11628f55a4df523b3ef60405160405180910390a46114138383836001611827565b505050565b60006002600083815260200190815260200160002060009054906101000a900473ffffffffffffffffffffffffffffffffffffffff169050919050565b61145d610fc9565b73ffffffffffffffffffffffffffffffffffffffff1661147b610909565b73ffffffffffffffffffffffffffffffffffffffff16146114d1576040517f08c379a00000000000000000000000000000000000000000000000000000000081526004016114c890612c0d565b60405180910390fd5b565b6000600760009054906101000a900473ffffffffffffffffffffffffffffffffffffffff16905081600760006101000a81548173ffffffffffffffffffffffffffffffffffffffff021916908373ffffffffffffffffffffffffffffffffffffffff1602179055508173ffffffffffffffffffffffffffffffffffffffff168173ffffffffffffffffffffffffffffffffffffffff167f8be0079c531659141344cd1fd0a4f28419497f9722a3daafe3b4186f6b6457e060405160405180910390a35050565b8173ffffffffffffffffffffffffffffffffffffffff168373ffffffffffffffffffffffffffffffffffffffff1603611607576040517f08c379a00000000000000000000000000000000000000000000000000000000081526004016115fe90612c79565b60405180910390fd5b80600560008573ffffffffffffffffffffffffffffffffffffffff1673ffffffffffffffffffffffffffffffffffffffff16815260200190815260200160002060008473ffffffffffffffffffffffffffffffffffffffff1673ffffffffffffffffffffffffffffffffffffffff16815260200190815260200160002060006101000a81548160ff0219169083151502179055508173ffffffffffffffffffffffffffffffffffffffff168373ffffffffffffffffffffffffffffffffffffffff167f17307eab39ab6107e8899845ad3d59bd9653f200f220920489ca2b5937696c31836040516116f89190611cac565b60405180910390a3505050565b61171084848461111f565b61171c8484848461182d565b61175b576040517f08c379a000000000000000000000000000000000000000000000000000000000815260040161175290612d0b565b60405180910390fd5b50505050565b606060405180602001604052806000815250905090565b606061178382610f7e565b600061178d611761565b905060008151116117ad57604051806020016040528060008152506117d8565b806117b7846119b4565b6040516020016117c89291906125ff565b6040516020818303038152906040525b915050919050565b60008073ffffffffffffffffffffffffffffffffffffffff1661180283611418565b73ffffffffffffffffffffffffffffffffffffffff1614159050919050565b50505050565b50505050565b600061184e8473ffffffffffffffffffffffffffffffffffffffff16611a82565b156119a7578373ffffffffffffffffffffffffffffffffffffffff1663150b7a02611877610fc9565b8786866040518563ffffffff1660e01b81526004016118999493929190612d80565b6020604051808303816000875af19250505080156118d557506040513d601f19601f820116820180604052508101906118d29190612de1565b60015b611957573d8060008114611905576040519150601f19603f3d011682016040523d82523d6000602084013e61190a565b606091505b50600081510361194f576040517f08c379a000000000000000000000000000000000000000000000000000000000815260040161194690612d0b565b60405180910390fd5b805181602001fd5b63150b7a0260e01b7bffffffffffffffffffffffffffffffffffffffffffffffffffffffff1916817bffffffffffffffffffffffffffffffffffffffffffffffffffffffff1916149150506119ac565b600190505b949350505050565b6060600060016119c384611aa5565b01905060008167ffffffffffffffff8111156119e2576119e1611ce2565b5b6040519080825280601f01601f191660200182016040528015611a145781602001600182028036833780820191505090505b509050600082602001820190505b600115611a77578080600190039150507f3031323334353637383961626364656600000000000000000000000000000000600a86061a8153600a8581611a6b57611a6a612e0e565b5b04945060008503611a22575b819350505050919050565b6000808273ffffffffffffffffffffffffffffffffffffffff163b119050919050565b600080600090507a184f03e93ff9f4daa797ed6e38ed64bf6a1f0100000000000000008310611b03577a184f03e93ff9f4daa797ed6e38ed64bf6a1f0100000000000000008381611af957611af8612e0e565b5b0492506040810190505b6d04ee2d6d415b85acef81000000008310611b40576d04ee2d6d415b85acef81000000008381611b3657611b35612e0e565b5b0492506020810190505b662386f26fc100008310611b6f57662386f26fc100008381611b6557611b64612e0e565b5b0492506010810190505b6305f5e1008310611b98576305f5e1008381611b8e57611b8d612e0e565b5b0492506008810190505b6127108310611bbd576127108381611bb357611bb2612e0e565b5b0492506004810190505b60648310611be05760648381611bd657611bd5612e0e565b5b0492506002810190505b600a8310611bef576001810190505b80915050919050565b6000604051905090565b600080fd5b600080fd5b60007fffffffff0000000000000000000000000000000000000000000000000000000082169050919050565b611c4181611c0c565b8114611c4c57600080fd5b50565b600081359050611c5e81611c38565b92915050565b600060208284031215611c7a57611c79611c02565b5b6000611c8884828501611c4f565b91505092915050565b60008115159050919050565b611ca681611c91565b82525050565b6000602082019050611cc16000830184611c9d565b92915050565b600080fd5b600080fd5b6000601f19601f8301169050919050565b7f4e487b7100000000000000000000000000000000000000000000000000000000600052604160045260246000fd5b611d1a82611cd1565b810181811067ffffffffffffffff82111715611d3957611d38611ce2565b5b80604052505050565b6000611d4c611bf8565b9050611d588282611d11565b919050565b600067ffffffffffffffff821115611d7857611d77611ce2565b5b611d8182611cd1565b9050602081019050919050565b82818337600083830152505050565b6000611db0611dab84611d5d565b611d42565b905082815260208101848484011115611dcc57611dcb611ccc565b5b611dd7848285611d8e565b509392505050565b600082601f830112611df457611df3611cc7565b5b8135611e04848260208601611d9d565b91505092915050565b600073ffffffffffffffffffffffffffffffffffffffff82169050919050565b6000611e3882611e0d565b9050919050565b611e4881611e2d565b8114611e5357600080fd5b50565b600081359050611e6581611e3f565b92915050565b60008060408385031215611e8257611e81611c02565b5b600083013567ffffffffffffffff811115611ea057611e9f611c07565b5b611eac85828601611ddf565b9250506020611ebd85828601611e56565b9150509250929050565b6000819050919050565b611eda81611ec7565b82525050565b6000602082019050611ef56000830184611ed1565b92915050565b600081519050919050565b600082825260208201905092915050565b60005b83811015611f35578082015181840152602081019050611f1a565b60008484015250505050565b6000611f4c82611efb565b611f568185611f06565b9350611f66818560208601611f17565b611f6f81611cd1565b840191505092915050565b60006020820190508181036000830152611f948184611f41565b905092915050565b611fa581611ec7565b8114611fb057600080fd5b50565b600081359050611fc281611f9c565b92915050565b600060208284031215611fde57611fdd611c02565b5b6000611fec84828501611fb3565b91505092915050565b611ffe81611e2d565b82525050565b60006020820190506120196000830184611ff5565b92915050565b6000806040838503121561203657612035611c02565b5b600061204485828601611e56565b925050602061205585828601611fb3565b9150509250929050565b60008060006060848603121561207857612077611c02565b5b600061208686828701611e56565b935050602061209786828701611e56565b92505060406120a886828701611fb3565b9150509250925092565b6000602082840312156120c8576120c7611c02565b5b60006120d684828501611e56565b91505092915050565b6120e881611c91565b81146120f357600080fd5b50565b600081359050612105816120df565b92915050565b6000806040838503121561212257612121611c02565b5b600061213085828601611e56565b9250506020612141858286016120f6565b9150509250929050565b600067ffffffffffffffff82111561216657612165611ce2565b5b61216f82611cd1565b9050602081019050919050565b600061218f61218a8461214b565b611d42565b9050828152602081018484840111156121ab576121aa611ccc565b5b6121b6848285611d8e565b509392505050565b600082601f8301126121d3576121d2611cc7565b5b81356121e384826020860161217c565b91505092915050565b6000806000806080858703121561220657612205611c02565b5b600061221487828801611e56565b945050602061222587828801611e56565b935050604061223687828801611fb3565b925050606085013567ffffffffffffffff81111561225757612256611c07565b5b612263878288016121be565b91505092959194509250565b6000806040838503121561228657612285611c02565b5b600061229485828601611e56565b92505060206122a585828601611e56565b9150509250929050565b7f4e487b7100000000000000000000000000000000000000000000000000000000600052602260045260246000fd5b600060028204905060018216806122f657607f821691505b602082108103612309576123086122af565b5b50919050565b7f4552433732313a20617070726f76616c20746f2063757272656e74206f776e6560008201527f7200000000000000000000000000000000000000000000000000000000000000602082015250565b600061236b602183611f06565b91506123768261230f565b604082019050919050565b6000602082019050818103600083015261239a8161235e565b9050919050565b7f4552433732313a20617070726f76652063616c6c6572206973206e6f7420746f60008201527f6b656e206f776e6572206f7220617070726f76656420666f7220616c6c000000602082015250565b60006123fd603d83611f06565b9150612408826123a1565b604082019050919050565b6000602082019050818103600083015261242c816123f0565b9050919050565b7f4552433732313a2063616c6c6572206973206e6f7420746f6b656e206f776e6560008201527f72206f7220617070726f76656400000000000000000000000000000000000000602082015250565b600061248f602d83611f06565b915061249a82612433565b604082019050919050565b600060208201905081810360008301526124be81612482565b9050919050565b7f4552433732313a20696e76616c696420746f6b656e2049440000000000000000600082015250565b60006124fb601883611f06565b9150612506826124c5565b602082019050919050565b6000602082019050818103600083015261252a816124ee565b9050919050565b7f4552433732313a2061646472657373207a65726f206973206e6f74206120766160008201527f6c6964206f776e65720000000000000000000000000000000000000000000000602082015250565b600061258d602983611f06565b915061259882612531565b604082019050919050565b600060208201905081810360008301526125bc81612580565b9050919050565b600081905092915050565b60006125d982611efb565b6125e381856125c3565b93506125f3818560208601611f17565b80840191505092915050565b600061260b82856125ce565b915061261782846125ce565b91508190509392505050565b7f4f776e61626c653a206e6577206f776e657220697320746865207a65726f206160008201527f6464726573730000000000000000000000000000000000000000000000000000602082015250565b600061267f602683611f06565b915061268a82612623565b604082019050919050565b600060208201905081810360008301526126ae81612672565b9050919050565b7f4552433732313a206d696e7420746f20746865207a65726f2061646472657373600082015250565b60006126eb602083611f06565b91506126f6826126b5565b602082019050919050565b6000602082019050818103600083015261271a816126de565b9050919050565b7f4552433732313a20746f6b656e20616c7265616479206d696e74656400000000600082015250565b6000612757601c83611f06565b915061276282612721565b602082019050919050565b600060208201905081810360008301526127868161274a565b9050919050565b7f45524337323155524953746f726167653a2055524920736574206f66206e6f6e60008201527f6578697374656e7420746f6b656e000000000000000000000000000000000000602082015250565b60006127e9602e83611f06565b91506127f48261278d565b604082019050919050565b60006020820190508181036000830152612818816127dc565b9050919050565b60008190508160005260206000209050919050565b60006020601f8301049050919050565b600082821b905092915050565b6000600883026128817fffffffffffffffffffffffffffffffffffffffffffffffffffffffffffffffff82612844565b61288b8683612844565b95508019841693508086168417925050509392505050565b6000819050919050565b60006128c86128c36128be84611ec7565b6128a3565b611ec7565b9050919050565b6000819050919050565b6128e2836128ad565b6128f66128ee826128cf565b848454612851565b825550505050565b600090565b61290b6128fe565b6129168184846128d9565b505050565b5b8181101561293a5761292f600082612903565b60018101905061291c565b5050565b601f82111561297f576129508161281f565b61295984612834565b81016020851015612968578190505b61297c61297485612834565b83018261291b565b50505b505050565b600082821c905092915050565b60006129a260001984600802612984565b1980831691505092915050565b60006129bb8383612991565b9150826002028217905092915050565b6129d482611efb565b67ffffffffffffffff8111156129ed576129ec611ce2565b5b6129f782546122de565b612a0282828561293e565b600060209050601f831160018114612a355760008415612a23578287015190505b612a2d85826129af565b865550612a95565b601f198416612a438661281f565b60005b82811015612a6b57848901518255600182019150602085019450602081019050612a46565b86831015612a885784890151612a84601f891682612991565b8355505b6001600288020188555050505b505050505050565b7f4552433732313a207472616e736665722066726f6d20696e636f72726563742060008201527f6f776e6572000000000000000000000000000000000000000000000000000000602082015250565b6000612af9602583611f06565b9150612b0482612a9d565b604082019050919050565b60006020820190508181036000830152612b2881612aec565b9050919050565b7f4552433732313a207472616e7366657220746f20746865207a65726f2061646460008201527f7265737300000000000000000000000000000000000000000000000000000000602082015250565b6000612b8b602483611f06565b9150612b9682612b2f565b604082019050919050565b60006020820190508181036000830152612bba81612b7e565b9050919050565b7f4f776e61626c653a2063616c6c6572206973206e6f7420746865206f776e6572600082015250565b6000612bf7602083611f06565b9150612c0282612bc1565b602082019050919050565b60006020820190508181036000830152612c2681612bea565b9050919050565b7f4552433732313a20617070726f766520746f2063616c6c657200000000000000600082015250565b6000612c63601983611f06565b9150612c6e82612c2d565b602082019050919050565b60006020820190508181036000830152612c9281612c56565b9050919050565b7f4552433732313a207472616e7366657220746f206e6f6e20455243373231526560008201527f63656976657220696d706c656d656e7465720000000000000000000000000000602082015250565b6000612cf5603283611f06565b9150612d0082612c99565b604082019050919050565b60006020820190508181036000830152612d2481612ce8565b9050919050565b600081519050919050565b600082825260208201905092915050565b6000612d5282612d2b565b612d5c8185612d36565b9350612d6c818560208601611f17565b612d7581611cd1565b840191505092915050565b6000608082019050612d956000830187611ff5565b612da26020830186611ff5565b612daf6040830185611ed1565b8181036060830152612dc18184612d47565b905095945050505050565b600081519050612ddb81611c38565b92915050565b600060208284031215612df757612df6611c02565b5b6000612e0584828501612dcc565b91505092915050565b7f4e487b7100000000000000000000000000000000000000000000000000000000600052601260045260246000fdfea264697066735822122085b60a5e27fb02fc34554c780115bd328c2df7a370169956c1de1989377407fc64736f6c63430008130033",
  "immutableReferences": {},
  "source": "// SPDX-License-Identifier: MIT\r\npragma solidity  >=0.4.0 <=0.8.19;\r\n\r\nimport \"@openzeppelin/contracts/token/ERC721/ERC721.sol\";\r\nimport \"@openzeppelin/contracts/utils/Counters.sol\";\r\nimport \"@openzeppelin/contracts/access/Ownable.sol\";\r\nimport \"@openzeppelin/contracts/token/ERC721/extensions/ERC721URIStorage.sol\";\r\n\r\ncontract CertficateMaker is ERC721URIStorage,Ownable{\r\n    using Counters for Counters.Counter;\r\n    Counters.Counter private tokenId;\r\n    constructor() ERC721(\"My Certificates\",\"NFT\"){\r\n    }\r\n    function mintNFT(string memory tokenURI,address student) public payable returns (uint256){\r\n        tokenId.increment();\r\n        uint256 newId=tokenId.current();\r\n        // _mint(msg.sender,newId);\r\n        _mint(student,newId);\r\n        _setTokenURI(newId,tokenURI);\r\n        return newId;\r\n    }\r\n}",
  "sourcePath": "C:\\Users\\Hp\\Desktop\\gfg_hackathon\\decentra\\truffle\\contracts\\CertificateMaker.sol",
  "compiler": {
    "name": "solc",
    "version": "0.8.19+commit.7dd6d404.Emscripten.clang"
  },
  "schemaVersion": "3.4.13",
  "updatedAt": "2023-04-16T05:06:08.916Z",
  "networkType": "ethereum",
  "devdoc": {
    "events": {
      "Approval(address,address,uint256)": {
        "details": "Emitted when `owner` enables `approved` to manage the `tokenId` token."
      },
      "ApprovalForAll(address,address,bool)": {
        "details": "Emitted when `owner` enables or disables (`approved`) `operator` to manage all of its assets."
      },
      "Transfer(address,address,uint256)": {
        "details": "Emitted when `tokenId` token is transferred from `from` to `to`."
      }
    },
    "kind": "dev",
    "methods": {
      "approve(address,uint256)": {
        "details": "See {IERC721-approve}."
      },
      "balanceOf(address)": {
        "details": "See {IERC721-balanceOf}."
      },
      "getApproved(uint256)": {
        "details": "See {IERC721-getApproved}."
      },
      "isApprovedForAll(address,address)": {
        "details": "See {IERC721-isApprovedForAll}."
      },
      "name()": {
        "details": "See {IERC721Metadata-name}."
      },
      "owner()": {
        "details": "Returns the address of the current owner."
      },
      "ownerOf(uint256)": {
        "details": "See {IERC721-ownerOf}."
      },
      "renounceOwnership()": {
        "details": "Leaves the contract without owner. It will not be possible to call `onlyOwner` functions anymore. Can only be called by the current owner. NOTE: Renouncing ownership will leave the contract without an owner, thereby removing any functionality that is only available to the owner."
      },
      "safeTransferFrom(address,address,uint256)": {
        "details": "See {IERC721-safeTransferFrom}."
      },
      "safeTransferFrom(address,address,uint256,bytes)": {
        "details": "See {IERC721-safeTransferFrom}."
      },
      "setApprovalForAll(address,bool)": {
        "details": "See {IERC721-setApprovalForAll}."
      },
      "supportsInterface(bytes4)": {
        "details": "See {IERC165-supportsInterface}."
      },
      "symbol()": {
        "details": "See {IERC721Metadata-symbol}."
      },
      "tokenURI(uint256)": {
        "details": "See {IERC721Metadata-tokenURI}."
      },
      "transferFrom(address,address,uint256)": {
        "details": "See {IERC721-transferFrom}."
      },
      "transferOwnership(address)": {
        "details": "Transfers ownership of the contract to a new account (`newOwner`). Can only be called by the current owner."
      }
    },
    "version": 1
  },
  "userdoc": {
    "kind": "user",
    "methods": {},
    "version": 1
  }
}